:02000000AF2B24
:10000800FF00030E8301E9000A08E8008A0170086E
:10001800A1007108A0000408A2000C1D2228171CCA
:1000280022280C1183160C110430831297008316B2
:100038000C1583128F018E01101433280C1D3328E0
:100048000C11101083160C118312970183160C15CE
:1000580083121608B4001508A60005309D000D1C73
:1000680044281D1C44280D1083160D1004308312DB
:100078009D0083160D1483128F018E0110145528CC
:100088000D1C55280D10101083160D1083129D019C
:1000980083160D1483121C08BE001B08A50005302A
:1000A80097008B1C58286E232108F0002008F100C7
:1000B8002208840068088A00690E8300FF0E7F0EFC
:0200C80009002D
:0A00CA000000000000000000080024
:1000D400423083120313FD00FD0B6E28000008005C
:1000E4001D3083120313FC009130FD00FD0B7828B2
:0600F400FC0B7828080057
:1000FA0083160313E51B84288312071386288312A9
:10010A0007178316651B8C28831287138E28831280
:10011A0087178316E51A94288312061196288312E4
:10012A0006158316651A9C28831286119E28831247
:10013A0086154C18A2288616A3288612061665204C
:10014A0006128316E519AC2883120713AE28831208
:10015A00071783166519B42883128713B6288312E2
:10016A0087178316E518BC2883120611BE28831246
:10017A00061583166518C42883128611C6288312A9
:10018A0086154C18CA288616CB28861206166520AC
:0E019A0006124C1CD2287220D3286A200800BE
:1001A800831203132408930083161418DD28000013
:0A01B800D82883121308F000080095
:0E01C200831203136B088A006A08820008008B
:1001D000831203132308930083161418F1280000D8
:0A01E000EC2883121308F000080059
:1001EA00E83083120313CD000030CE002330CF0055
:1001FA000030D430C4000030C5002430C6000030BE
:10020A0083168712871107168312940140308316CA
:08021A00940083129416080001
:10022200831203134C1083166408E5007D204C14DE
:020232000800C2
:1002340083120313F8010830FC00700DF80D7408E4
:10024400F80203182729F8070310F00DFC0B1F29E7
:020254000800A0
:1002560083160313E101610860078400000803198F
:100266003D296108600784000008E4001121831617
:06027600E10A2E29080038
:10027C0083160313E2010330620203184C2962084F
:10028C006107840020308000E20A4129620861077E
:10029C0084008001E20362086107E3000A308312E4
:1002AC00F400831660088312F0001A217808F0001D
:1002BC003030F007831663088400831270088000C6
:1002CC000A30F400831660088312F0001A217008BB
:1002DC008316E00083127008003A031D76297929F1
:0802EC008316E203512908000A
:1002F4008B1383120313051185112730A400D42016
:100304007030A400D42085158511A030A400D42019
:100314008316E2010530620203189A296208353E09
:10032400840000088312A400D4208316E20A8C29D6
:100334008312851585112030A400D4200E30A4002A
:10034400D420851505151330FD00FD0BA7290000E9
:10035400000005118316E001E1018312061CC02987
:100364008316E00A0319E10A6108013A031DBC2956
:10037400F4306006031DBF29C029AF2983128511FB
:100384000730A400D420A301E82085158511273067
:10039400A400D4207030A400D42085158511E13048
:1003A400A400D420851585112030A400D4200F305A
:1003B400A400D42085150515C730FD00FD0BE029E8
:1003C4000000000083166108013A031DEB29F43094
:1003D4006006031DF2298B108B178312F001F72995
:0C03E40083128B178B100130F000080012
:1003F0000A2A803083160313E0001D2AC030E00073
:100400001D2A9430E0001D2AD430E0001D2A8030DF
:10041000E0001D2A831603136008013A0319F92925
:100420006008023A0319FE296008033A0319012AF9
:100430006008043A0319042A072A61038312F000B2
:10044000831660088312F00770088316E000831299
:1004500070088316E5007D204C108316E3016308C5
:1004600062078400000803193E2A630862078400BB
:100470000008E40011218316E30A2F2A83124C148A
:02048000080072
:1004820083160313061286128611061187130713A9
:100492008312061286120713871306118611722021
:1004A2007220722006158615061665200612722025
:1004B20006166520061272200616652006127220A4
:1004C200861106166520061272200616652006128F
:1004D20006110717061665200612722007138615E5
:1004E200061665200612861106166520061272206F
:1004F200061665200612861506166520061272205B
:100502008611061665200612071787170615861527
:0C05120006166520061272204C1408002A
:10051E00E1208A110A128000840AEA0A0319EB0A02
:08052E00F003031D8F2A0800F1
:1005360083120313861CA32A051EA32AA701AE2A2B
:100546002708031DAE2A861CAA2A0230A700051E0C
:10055600AE2A0130A7002708003A0319C82A861CCC
:10056600B82ACC18B82ACC14A70A8618BD2ACC1CDF
:10057600BD2ACC10051EC32A4C19C32A4C15A70345
:10058600051AC82A4C1DC82A4C1180302706F000CF
:100596008030003A70020318D22AA701DC2A803084
:1005A600063AF0008030270670020318DC2A06306F
:0405B600A700080092
:1005BA008B1383160313851105110614F5200511F3
:1005CA008511851585112A30A400D4204B30A4004A
:1005DA00D420C230A400D420C230A400D420C23017
:1005EA00A400D420C230A400D4208515851130304F
:1005FA00A400D4204B30A400D420C230A400D420BC
:10060A00C230A400D420C230A400D420C230A40036
:10061A00D420851585112130A400D4200130A400EE
:10062A00D420851585112230A400D4200130A400DD
:10063A00D420851585112330A400D4200330A400CA
:10064A00D420851585112430A400D420A401D420F7
:10065A00851585112530A400D4206B30A400D42040
:10066A00851585112630A400D4202630A400D42074
:10067A00851585112730A400D4207030A400D42019
:10068A00851585113130A400D4200530A400D4206A
:10069A00851585112030A400D4200F30A400D42061
:1006AA0085150B30FC006230FD00FD0B5A2BFC0B4C
:1006BA005A2B00000515C730FD00FD0B622B000008
:1006CA0000008B130B170B168316011306148B17D6
:0206DA00080016
:1006DC008B138312031385118C11073093008C1923
:1006EC00782B752B8C1193018C197D2B7A2B13087D
:1006FC00F200851585118C11273093008C19872BEE
:10070C00842B8C11703093008C198D2B8A2B8515B2
:10071C0000307205F0000319932B85118C11613098
:10072C0093008C199A2B972BF10105307102031849
:10073C00AB2B8C1193018C19A42BA12B7108473E68
:10074C00840013088000F10A9B2B85158B108B17E6
:02075C00080093
:10075E0083120313A501A601A7012C30A800A9013D
:10076E002C30AA00AB012C30AC00AD012C30AE0009
:10077E00AF012C30B000B1012C30B200B301EF014B
:10078E002A308316A0002A30A1002030A200453066
:10079E00A3005330A4004330A5005530A6004430CA
:1007AE00A7004530A8005230A9004930AA004130B8
:1007BE00AB002030AC002A30AD002A30AE00AF01C5
:1007CE002A30B0002A30B1002A30B2002A30B300ED
:1007DE002030B4005530B5004630B6005330B70067
:1007EE004130B8004530B9002030BA002A30BB0085
:1007FE002A30BC002A30BD002A30BE00BF01203096
:10080E00C0002030C1002030C2002030C300433071
:10081E00C4004530C5004E30C6005430C7005230BB
:10082E00C8004130C9004C30CA002030CB00203007
:10083E00CC002030CD002030CE00CF012030D000B3
:10084E002030D1004430D2004530D3002030D400C7
:10085E004330D5004F30D6004E30D7005430D8003C
:10086E005230D9004F30DA004C30DB004530DC001E
:10087E002030DD002030DE00DF0110308500033037
:10088E008600163087004122DD220130E5007D20F2
:10089E000C308316E5007D2001308316E000013018
:1008AE00E100A030E200F82102308316E0000130B2
:1008BE00E100B030E200F8212930FB009630FC0058
:1008CE007F30FD00FD0B692CFC0B692CFB0B692C9A
:1008DE0001308316E5007D2001308316E0000130E3
:1008EE00E100C030E200F82102308316E000013052
:1008FE00E100D030E200F8212930FB009630FC00F8
:10090E007F30FD00FD0B892CFC0B892CFB0B892CF9
:10091E0001308316E5007D208B0183160C100C111F
:10092E00053083129700900183160D10D0308B0086
:10093E009B222708B5003408B6002608B7003E08EB
:10094E00B8002508B90085110730A400D420A301F2
:10095E00E8207008EC0085158511A401D420A301B0
:10096E00E8207008ED00851585110230A400D42012
:10097E00A301E8207008EE00851585110A30A40049
:10098E00D420A301E8207008EF0085156C088316AB
:10099E00E0003A30E1003E21831203136D08831606
:1009AE00E0003F30E1003E21831203136E088316F0
:1009BE00E0005430E1003E21831203136F088316CA
:1009CE00E0005830E1003E21013083160313E000B1
:1009DE000130E1003A30E200F8212E308316E000BB
:1009EE002B213F30E0002B213030E0002B21543002
:1009FE00E0002B213230E0002B215830E0002B217B
:100A0E0083123E088316E0006430E1003E2183121B
:100A1E00031325088316E0005C30E1003E218312AB
:100A2E00031334088316E0006030E1003E21831288
:100A3E00031326088316E0005030E1003E210230F9
:100A4E0083160313E0000130E1006430E200F82168
:100A5E002A308316E0002B215C30E0002B212C3055
:100A6E00E0002B216030E0002B212830E0002B210C
:100A7E005030E0002B217A217008C3009F2C462DA8
:02400E005A0056
:00000001FF
